:020000040800F2
:10000000101000202904000831040008B53B000846
:100010003504000837040008390400080000000017
:100020000000000000000000000000003B04000889
:100030003D040008000000003F040008956200082D
:100040004304000843040008430400084304000874
:100050004304000843040008430400084304000864
:100060004304000843040008430400084304000854
:100070004304000843040008430400084304000844
:100080004304000843040008EB0C00084304000884
:10009000430400084304000843040008C10D00089D
:1000A000D96200081D6300084304000843040008E7
:1000B0004304000843040008430400084304000804
:1000C00043040008430400084304000843040008F4
:1000D00043040008430400082D830008430400087B
:1000E00043040008430400084304000843040008D4
:1000F00043040008430400084304000843040008C4
:1001000043040008430400084304000843040008B3
:1001100043040008430400084304000843040008A3
:100120004304000843040008430400084304000893
:100130004304000843040008430400084304000883
:100140004304000843040008430400084304000873
:100150004304000843040008430400084304000863
:100160004304000843040008430400084304000853
:100170004304000843040008430400084304000843
:100180004304000843040008430400084304000833
:100190004304000800000000430400084304000872
:1001A0004304000843040008430400084304000813
:1001B0004304000843040008430400084304000803
:1001C00043040008430400084304000843040008F3
:1001D0004304000843040008DFF80CD000F048FD99
:1001E000004800470D86000810100020014600203E
:1001F00091F8582091F849108A4228BF0120704791
:100200002DE9F04FB0F92E300446826EC3EBC330B7
:1002100093B08242C8BFA06605DCA3EBC33C944503
:10022000A8BFC4F868C0B4F81EC1D4F868A0E56ED1
:100230004AFA0CF212B28542DCBFA3EBC330A842EB
:10024000ACBFE066E06E069040FA0CF0B4F92CC04A
:1002500003B2266ECCEBCC308642C8BF206604DCED
:10026000ACEBCC35B542A8BF2566656E854203DC94
:10027000ACEBCC30854200DC606694F81C01D4F80D
:100280006080B1F804C048FA00F7A7EB0C06B1F89B
:100290000890B1F900B0B1F806C0B1F90210656E6E
:1002A00009FB0BFB09FB01F14FEA2149CDF8309026
:1002B00045FA00F0B4F82090A0EB0C0C4FEA2B4E5E
:1002C00019FB07F1B4F822B0A8EB01011BFB06F7FC
:1002D000CDF840B0B4F828B039441BFB0EF7CDF888
:1002E0003CB0B4F82480394418FB02F7C91B0191D3
:1002F000E78C17FB06F194F832E00AEB010BB4F936
:100300002A6043FA0EF106FB01FAB4F90E100AFB5B
:1003100001BA19FB00F0DDF840B0281A1BFB0CF500
:10032000DDF83CB0DDF8309028441BFB09F528448B
:1003300018FB03F5451B17FB0CF0DDF818C06044F3
:1003400042FA0EFC06FB0CFC01FB1C06B4F924016E
:100350000028ACBF01204FF0FF30A4F87020A4F8B3
:10036000723012FB00F713FB00F0C0F10008B4F983
:10037000040003F023FE10FB27F110FB08F040F30C
:10038000CF3041F3CF31411A04F1340004F0C0FB07
:10039000208294F8F41094F80E21491CC9B28A42C4
:1003A00008BF002104EB4102B2F874C0A4F80CC1EC
:1003B000A2F8740084F8F410A188084400B2A08068
:1003C0000199C4F868A0C4E91815E66613B0BDE841
:1003D000F08F10B490F8F4C090F80F110CF0FF03F8
:1003E00000EB430390F80E21B3F97430D0F80841C4
:1003F000511A234408BFB0F90C1107D0614491424F
:10040000A8BF891A00EB4101B1F9741090F82021BE
:10041000591A41FA02F2C281C0F8081110BC7047A3
:100420000021343004F06BBB064880470648004783
:10043000FEE7FEE7FEE7FEE7FEE7FEE7FEE7FEE794
:10044000FEE7FEE7BD620008D901000830B400F104
:100450000C046830029D2EC04FF0000C00F824CC34
:1004600000F823CC6146783804E0A4680CF101025E
:1004700002F0FF0C002C18BFBCF1050FF5D30CEBFC
:100480004C0200EB8202916080F848C0018864222F
:1004900051434FF47A72B1FBF2F180F8561030BC40
:1004A00070472DE9F04704460026D4E91A89C18037
:1004B00080F8556080F8586080F8536000F10C05B2
:1004C00080F854600F46484608F008F8002140467E
:1004D00005F025FE608810FB07F001B2484608F0E1
:1004E00059F800221146404605F09AFD2A88A8884E
:1004F00010FB07F001B2404605F092FD2A8868889B
:1005000010FB07F001B2484608F006F82888218859
:1005100048434FF47A71B0FBF1F0401CA080A8680A
:10052000A06084F85760BDE8F0872DE9F05F0446CD
:1005300080884FF0010A0025D34600287ED0401E57
:10054000A08094F8580030B994F855000028206F26
:1005500006D041688847A08800286FD000F0E0B836
:10056000C16879B194F85710491CC9B284F8571082
:1005700094F85620914205D9C168884784F85350B1
:1005800084F85750206F01698847002808BF84F815
:10059000535006D094F853007F283CBF401C84F889
:1005A0005300206FC168002994F8531005D094F8C7
:1005B0005620B1EB520F02D0CDE77F29CBD1006896
:1005C00005F0B5FC060048BF70420FFA80F8B4F998
:1005D0000600002802DD002E02DD04E0002E02DB12
:1005E00084F85350B7E7B4F84A101FFA88F08842ED
:1005F00005D9206F4168884784F855B0ABE7B4F857
:100600004C108842A7D94FF000094F46E06E07F022
:100610007FFF206F81688847A068002808BFA580F9
:100620006FD0B0F90200404512DAA168886840B383
:10063000B1F90290B1F90470A06000E022E094F8F2
:100640005810491C84F85810B0F902004045ECDB02
:10065000A168B1F90200B1F90410A0EB0900C91BAF
:10066000714391FBF0F007FA80F001B20022A06E16
:1006700005F0D6FCA4F804B004F15C00A0600620EC
:100680003BE0A580A068D8B394F8580010B10128C9
:100690000BD00FE0606F04F0BDFB84F854B0606FC6
:1006A00004F0BCFB84F8535004E0606F04F0B4FB2A
:1006B00084F85450A068E288818811FB02F1028816
:1006C00009B2A06E05F0ACFCA068E288418811FB7D
:1006D00002F1028809B2E06E07F01EFFA1682288CD
:1006E000088850434FF47A72B0FBF2F0401CA080AF
:1006F0008868A06094F85800401C84F858000FE007
:10070000FFE794F8481094F85800491E884208BF43
:100710004FF0000A04D0072804BF84F85850A58081
:100720005046BDE8F09F70B504468088012520B191
:10073000401E0004000CA08028D1A068002808BF3B
:10074000002523D08188E28811FB02F1028809B2DA
:10075000A06E05F065FCA068E288418811FB02F1FB
:10076000028809B2E06E07F0D7FEA16822880888E7
:1007700050434FF47A72B0FBF2F0401CA0808868BE
:10078000A06094F85800401C84F85800284670BDBA
:10079000014600208968002908BF0120704710B574
:1007A0000021C46E81608180204605F0C0FB0146B7
:1007B0002046BDE81040002207F0AEBE01EB41012B
:1007C00000EB81008281704701EB410100EB810069
:1007D000C281704701EB410100EB8100028270474A
:1007E00001EB410100EB81008089704701EB410181
:1007F00000EB8100B0F90E00704701EB410100EB06
:100800008100B0F91000704790F84800704790F8E8
:100810005400704730B40023036643668366C366A2
:100820008380C38180F8F63080F8F73080F8F830A4
:1008300080F8F930C0F8FC30C0F80031C0F8083159
:1008400080F8223180F8233190F80EC1BCF1000FFE
:1008500015D000221CF001011CBFA0F87430012249
:1008600061450CDA00EB4204521CA4F8743000EB32
:100870004204891C521CA4F874306145F2DB80F8F4
:10088000F430A0F80C31002130BC343004F037B91A
:1008900070B5044690F8160184F8F600012084F83B
:1008A000040100256586B4F92E30BF4991FBF3F1B0
:1008B00009B249B1628E01EBD17102F10102491016
:1008C0004FEA40006286F5D1208613FB00F042F625
:1008D000BE0190FBF1F060852046FFF79BFF04F11D
:1008E000340004F002F9658270BD70472DE9F00311
:1008F000002690F80E213546B046B44637463446B9
:100900003346002A09D900BF00EB43095B1CB9F943
:100910007490DBB24E449A42F6D896FBF2F600236E
:10092000002A0BD900EB43095B1CB9F97490DBB2C8
:10093000A9EB060909FB09559A42F3D895FBF2F396
:10094000B0F8105106FB06F26A43D51702EB556268
:10095000D2119342B8BF0127428B837872435A4326
:10096000C36992FBF3F2437892FBF3F20A8082812F
:1009700080F8F57090F80431012B18BF012420D0C5
:1009800090F8F820002A4CD0624217424FF0000243
:1009900011D190F8F7305B1CDBB280F8F73090F89B
:1009A00017C163453DD380F8F720C1780170BDE8D9
:1009B000F0030020704780F8F720BDE8F00305F051
:1009C000C9BA002AB8BF5242B0F81A31934223DDA7
:1009D000B0F8703013FB03FCB0F8723013FB03C89F
:1009E000B0F91430C2EBC23292FBF3F290F8193135
:1009F00053434FEAE37C03EB9C639B1103FB02FC34
:100A00004FEAEC720CEB926290F81831921102FBF3
:100A100013C29045C8BF012480F8F940C0E93F8C5B
:100A2000AEE7BDE8F00305F095BAF0B4A0F82411E4
:100A300090F823210024012A08BFB0F90C1090F887
:100A4000222100230125012A38D0B0F90C2012FB05
:100A500001FCBCF1000F38DD002ABCBF524212B2CB
:100A60000029BCBF494209B290F812C11CFB01FC2D
:100A70004FEAEC760CEB167C90F813614CF30F1CEC
:100A800016FB01F1CE1701EB167190F8F56041F3FA
:100A90000F11012E17D1B0F8147196B2BE4212D9BF
:100AA0008A42A8BF94450EDB90F8F610491CC9B2E3
:100AB00080F8F61090F81621914206D380F8F8508D
:100AC0000124037001E080F8F6302046F0BC704746
:100AD0000146B0F87020B1F8721062F30F0061F3B4
:100AE0001F40704790F81C21036E406E134163F362
:100AF0000F01104160F31F4108467047438C0B8083
:100B0000C08C108070474184C284704770B5044621
:100B100015460E46343003F0E3FF308004F1340014
:100B200003F0D9FF288070BD70B5044615463430F7
:100B300003F0EBFF294604F13400BDE8704003F0F8
:100B4000E2BF704700680021343003F0D8BF70B5B1
:100B5000044615460E46343003F0C0FF00FB06F194
:100B600004F1340003F0CBFFA58070BDD0F8000184
:100B70007047D0F8FC00704780F80411704790F877
:100B8000F9007047006890F8F5007047006801218F
:100B900080F8221170470068012180F82311704706
:100BA000A0F81411704700005EEA0F002DE9F05F15
:100BB0000546002092469B468846064681464024CC
:100BC0001BE0284641464746224600F041F853467E
:100BD0005A46C01A914110D311461846224600F0D9
:100BE00028F82D1A67EB01084F4622460120002104
:100BF00000F01FF817EB00094E41201EA4F101047C
:100C0000DFDC484631462A464346BDE8F09FD2B273
:100C100001E000F8012B491EFBD270470022F6E7E5
:100C200010B513460A4604461946FFF7F0FF204662
:100C300010BD202A04DB203A00FA02F100207047A0
:100C40009140C2F1200320FA03F31943904070470A
:100C5000202A04DB203A21FA02F00021704721FA11
:100C600002F3D040C2F12002914008431946704778
:100C7000064C074D06E0E06840F0010394E80700E9
:100C800098471034AC42F6D3FFF7AAFADC8E00087E
:100C9000FC8E000870B58C1810F8015B15F0070386
:100CA00001D110F8013B2A1106D110F8012B03E005
:100CB00010F8016B01F8016B5B1EF9D12B0705D40D
:100CC0000023521E0DD401F8013BFAE710F8013B56
:100CD000CB1A921C03E013F8015B01F8015B521E72
:100CE000F9D5A142D8D3002070BD10B54FF0A04176
:100CF0004020086005F0C2FCBDE8104006F0BEBD13
:100D000010B4024608460FFA81FC1CFB0CF40B14CD
:100D100013FB0341148864438C4224BF10BC70470A
:100D200092F8B240C4EB1161C9B202EB41018A886A
:100D300010BC0CFB02F14FEAE17C01EB5C41C913F2
:100D400061F30F0003FB02F1CA1701EB5241C91313
:100D500061F31F407047000010B590F83010094C47
:100D6000002206F0FFFD210101FA80F10648026829
:100D70006FF30F1211430160606840F00100606082
:100D800010BD0000000800500C080050084490F806
:100D90003000704700EB4100B0F9320070470000AE
:100DA0000248016841F001010160704700080050ED
:100DB000084480F83020704700EB410042867047BD
:100DC0000448016811F0400F08BF704740210160DE
:100DD00007F0BEB814040140002190B143780178B7
:100DE00000221944002B09D900EB020C521C9CF87C
:100DF00002C0D2B2614489B29342F5D801EB11200E
:100E0000C1B208467047002141820175417580F8E2
:100E1000961080F8971080F8981080F8991080F854
:100E20009A1080F81B1180F81C1180F81D11704772
:100E3000DDF800C0002818BF80E80E1070470000E1
:100E400000EB400101EB001210B5084901EB420430
:100E500094F82410002918BF10BD054951F820004E
:100E600005F0A8F8E083208210BD0000780A002079
:100E70001407002010B5044600EB440000EB0412F8
:100E80001248002100EB4202114811605160D1600C
:100E90001161D183C2F81610C2F81A10118450F8EB
:100EA000240003F02CFE0B48002150F8240003F02E
:100EB00026FE094850F8240005F0AAF8074850F823
:100EC0002400BDE8104003F0A5BF0000780A002010
:100ED0001C07002020070020140700202C070020FA
:100EE000704700002DE9F00782B00023009390F8CE
:100EF00058409C461A46012C01BF022002B0BDE8B2
:100F0000F0077047012480F858404669FD4D002ED7
:100F10001CBF0E6A012E02D0876EDFB129E04A683D
:100F2000092A3BD18A6A4FF47856002A04BF0A681E
:100F300006EA524207D00F6802F07C0206EA5746E2
:100F40003243CE6A32430668F76C3D401543F56480
:100F5000426623E0C0E919C68A6A002A04BF0A6A09
:100F6000521E06D00E6A02F07C02761E3243CE6A12
:100F700032430E680F79C6F3846607F01F07BE4040
:100F80003243866E761E8666476E47EA02024266E6
:100F900004D10668F76C3D402A43F2640268956804
:100FA00015F0080F0AD191F82550B5B1D56891F820
:100FB000266025F4401545EA4655D56002689568D7
:100FC000C5F380069568C5F3C00556EA05074FF0DE
:100FD00004054FF007060CD07EE091F8265091F8FA
:100FE00024606D0545EA0655D66826F4401635435B
:100FF000E3E78F6A002F1CBFCF6A002F91F825709E
:1010000074D0012F1CBFD76827F0007778D0D76045
:1010100091F83020012A7AD00268176927F0020778
:1010200017618F68B7F1004F7ED00A68D0F8008052
:1010300005EAD259C844D8F81490C2F3045206FA0B
:1010400002FA29EA0A0907FA02F249EA0202C8F892
:1010500014200268576927F00047576102684F69FA
:10106000D2F80C80C8F3C1084FEA480807FA08F81C
:101070000F69042F72D002EB8702D1F80090176E2F
:10108000DFF884A209F0F84907EA0A0749EA0808E4
:1010900047EA080747F0004717660268D1F8108052
:1010A0008F6902EB8802D2F8608028F0807848EAE5
:1010B000070717660F7F0268D1F81080012F0CBF59
:1010C0004FF00077002702EB8802D2F8608028F00A
:1010D000007848EA070717660268976817F0010F5B
:1010E00040F06A81C2E001E00AE010E0012FD76819
:1010F0000EBF47F0007727F00077D76088D186E7EA
:10110000C26D42F02002C265012381E70CE0D1E903
:101110000D2717430268D2F8108028F4FF7848F0B2
:10112000020847EA08077BE70F68026805EAD75913
:101130004A444FF00008D2F81490C7F3045706FA57
:1011400007FA29EA0A0908FA07F749EA070757617F
:101150000268576947F000477FE7FFE7176E0027EF
:101160007F037F0B176E07F0F8471ABF97FAA7F7B0
:10117000B7FA87F84FEA97680F68C7F31209B9F111
:10118000000F0EBFC7F3846797FAA7F7B7FA87F780
:10119000B84503D1176E27F0004717660268576EEF
:1011A0000027121D7F037F0B176E07F0F8470EBF55
:1011B0004FEA976897FAA7F7B7FA87F80F68C7F367
:1011C0001209B9F1000F0EBFC7F3846797FAA7F7AA
:1011D000B7FA87F7B84503D1176E27F000471766AF
:1011E0000268976E002708327F037F0B176E07F0A7
:1011F000F8470EBF4FEA976897FAA7F7B7FA87F84C
:101200000F68C7F31209B9F1000F0EBFC7F3846767
:1012100097FAA7F7B7FA87F7B84503D1176E27F003
:10122000004717660268D76E00270C327F037F0BDA
:10123000176E07F0F8470EBF4FEA976897FAA7F7BF
:10124000B7FA87F80F68C7F31209B9F1000F0EBF9C
:10125000C7F3846797FAA7F7B7FA87F7B84504BFCB
:10126000176E27F000477FF437AF34E791F80C8012
:101270000F68D2F8B090C7F3120A29EA0A09DFF81A
:101280008CA008F018082AFA08F808EA070749EAC3
:101290000707C2F8B070CA68A2F18047B7F5FE0729
:1012A0007ED10A68076812EA0A081ABF92FAA2F801
:1012B000B8FA88F8C2F3846808F1010808F01F083A
:1012C000B8F1090FC2F3120832D8B8F1000F1ABFF3
:1012D00092FAA2F8B8FA88F8C2F3846808F1010813
:1012E00008F01F0804FA08F80EBFC2F3846492FAEB
:1012F000A2F4B4FA84F404F1010404F01F0448EAEF
:10130000846405E00040100400F0FF03FFFF0700C5
:101310000EBFC2F3846292FAA2F2B2FA82F202F132
:10132000010202F01F0202EB420244EA025230E0E4
:10133000B8F1000F0EBFC2F3846892FAA2F8B8FAAF
:1013400088F808F1010808F01F0804FA08F80EBF31
:10135000C2F3846492FAA2F4B4FA84F404F10104AE
:1013600004F01F0448EA84640EBFC2F3846292FA58
:10137000A2F2B2FA82F202F1010202F01F02DFF8D9
:101380005C8102EB420208EB025244EA020242F0A4
:10139000007205EAD2543C44D1F80880656900E047
:1013A0000AE0C2F3045206FA02F625EA060508FA34
:1013B00002F245EA020262610E6849490E425ED0BD
:1013C00002684849484F494DB2F1A04F16BFAA42A2
:1013D0000C463C46A46806F1705804F0E07418F519
:1013E0005F081ABFDFF80881464514F4000F10D0DB
:1013F00006F1605818F52E0808BF14F0807F3FD022
:1014000006F1505818F5F80808BF14F4800F4CD0B6
:1014100058E0B2F1A04F07D0A2F1A046B6F5C066E1
:1014200050D1AA4218BF394644F400028C6824F017
:10143000E07422438A602F492F4A0968B1FBF2F118
:1014400001EB41018900009101913BD0B1F1004FC6
:101450003FD20029D8BF002105DD11F0010102D0E3
:10146000009A521E0092019A491C521C914229DA9C
:10147000009C891C641E641E00949142F8DB21E0EC
:10148000AA4204BFA2F1A046B6F5A0661AD0B2F1F6
:10149000A04F1CBFAA42394644F080728C6824F0E9
:1014A000E07444EA02028A600CE0AA420AD0B2F177
:1014B000A04F18BF394644F480028C6824F0E074D1
:1014C00022438A6080F858C002B01846BDE8F00791
:1014D00070470099491E0091FCD1F3E7000020FEFF
:1014E0000000088000030050000700500001005079
:1014F0001000C09068070020400D030090F85820AD
:101500004FF0000C012A04BF022070472DE9F007BC
:101510009BB0012280F85820026800244E4BB2F1A3
:10152000A04F04BF00931D4612D0A2F1A045B5F50F
:10153000806504BF494D00950AD0C16D41F020017E
:10154000C16580F858401BB00120BDE8F007704726
:10155000AD689668C5F3800516F0040F08BF002D2E
:101560000DD0C16D41F02001C1654FF0010C00BFED
:1015700080F858401BB06046BDE8F0077047B2F1F4
:10158000A04F1ABF9A42364A364A4FF0A045D1F8CA
:101590000090354E354FDFF8D880B9F1000F35D0C7
:1015A000D2F8089090F838A029F4604949EA4A39FD
:1015B000D1F804A049EA0A09C2F80890D0F80090CE
:1015C000B9F1A04F18BF994507D1AB68D5F80851BC
:1015D00043EA050303F0010309E033683D6843EA89
:1015E0000503D8F8005043EA050303F00103002B7C
:1015F000BED10B68896843EA0101936823F01F0399
:1016000023F4706341EA03019160B1E7916821F42A
:10161000604191600168B1F1A04F18BF994207D1B4
:10162000A968D5F8083141EA030101F0010109E098
:1016300031683B6841EA0301D8F8003041EA030110
:1016400001F00101002902BF916821F01F0121F47E
:1016500070618DD1D8E700000001005000050050F6
:101660000007005000030050080400500805005017
:10167000080600502DE9F00785B00023029390F88A
:1016800058209C46012A01BF022005B0BDE8F007A2
:101690007047012480F858400268956815F0040FDF
:1016A0000BD0C16D41F02001C165012380F858C005
:1016B00005B01846BDE8F0077047D1E900650C2772
:1016C00007EA95173A44176B05F01F054FF01F08FE
:1016D00008FA05F8C6F3846627EA080706FA05F54E
:1016E0003D431563026895689668C5F38005C6F3A7
:1016F000C00655EA06074FF004054FF0070658D11B
:101700008F68B7F1004F5BD0D1F8008005EAD85957
:101710004A44D2F81490C8F3045806FA08FA29EAA1
:101720000A0907FA08F749EA070757610268576983
:1017300027F00047576102684F69D2F80C80C8F360
:10174000C1084FEA480807FA08F80F69042F4FD07C
:1017500002EB8702D1F80090176EDFF8F8A309F0CA
:10176000F84907EA0A0749EA080847EA080747F07C
:1017700000471766D0F800800A698F6908EB82027B
:10178000D2F8608028F0807848EA070717660F7F54
:10179000D0F800800A69012F0CBF4FF000770027B6
:1017A00008EB8202D2F8608028F0007848EA070748
:1017B00017660268976817F0010F40F039819FE0C3
:1017C0000F684FF0000805EAD7594A44D2F8149040
:1017D000C7F3045706FA07FA29EA0A0908FA07F7CD
:1017E00049EA070757610268576947F00047A1E7D0
:1017F000176E00277F037F0B176E07F0F8471ABF9D
:1018000097FAA7F7B7FA87F84FEA97680F68C7F310
:101810001209B9F1000F0EBFC7F3846797FAA7F753
:10182000B7FA87F7B84503D1176E27F00047176658
:101830000268576E0027121D7F037F0B176E07F09B
:10184000F8470EBF4FEA976897FAA7F7B7FA87F8F5
:101850000F68C7F31209B9F1000F0EBFC7F3846711
:1018600097FAA7F7B7FA87F7B84503D1176E27F0AD
:10187000004717660268976E002708327F037F0BC8
:10188000176E07F0F8470EBF4FEA976897FAA7F769
:10189000B7FA87F80F68C7F31209B9F1000F0EBF46
:1018A000C7F3846797FAA7F7B7FA87F7B84503D164
:1018B000176E27F0004717660268D76E00270C32B4
:1018C0007F037F0B176E07F0F8470EBF4FEA97684C
:1018D00097FAA7F7B7FA87F80F68C7F31209B9F1B3
:1018E000000F0EBFC7F3846797FAA7F7B7FA87F719
:1018F000B84504BF176E27F000477FF45AAF57E78B
:1019000091F80C800F68D2F8B090C7F3120A29EA58
:101910000A09DFF844A208F018082AFA08F808EAC9
:10192000070749EA0707C2F8B070CA68A2F1804702
:10193000B7F5FE077CD10A68D0F8008012EA0A07E2
:101940001ABF92FAA2F7B7FA87F7C2F384677F1C2F
:1019500007F01F07092FC2F312072AD8002F1ABF5A
:1019600092FAA2F7B7FA87F7C2F3846707F1010783
:1019700007F01F0704FA07F70EBFC2F3846492FA58
:10198000A2F4B4FA84F404F1010404F01F0447EA59
:1019900084640EBFC2F3846292FAA2F2B2FA82F2B7
:1019A00002F1010202F01F0202EB420244EA02527B
:1019B0002EE0002F0EBFC2F3846792FAA2F7B7FAA7
:1019C00087F707F1010707F01F0704FA07F70EBFB3
:1019D000C2F3846492FAA2F4B4FA84F404F1010428
:1019E00004F01F0447EA84640EBFC2F3846292FAD3
:1019F000A2F2B2FA82F202F1010202F01F02574F84
:101A000002EB420207EB025244EA020242F0007289
:101A100005EAD25444448F686569C2F3045206FA59
:101A200002F625EA060507FA02F245EA02026261B9
:101A30000E684B490E423FF439AE0168494A4A4F9D
:101A40004A4DB1F1A04F16BFA94214463C46A468C6
:101A500006F1705804F0E07418F55F081ABFDFF85B
:101A60001081464514F4000F1FD006F1605818F598
:101A70002E0808BF14F0807F51D006F1505818F599
:101A8000F80808BF14F4800F7FF410AEA9423FF4A9
:101A90000DAEB1F1A04F18BF3A4644F480019468EE
:101AA00024F0E0742143916000E6B1F1A04F08D02A
:101AB000A1F1A046B6F5C0667FF4F8ADA94218BF03
:101AC0003A4644F40001946824F0E07421439160A4
:101AD0002849294A0968B1FBF2F101EB410189006B
:101AE000029100913FF4E2ADB1F1004F2DD20029F7
:101AF000D8BF002105DD11F0010102D0029A521E6B
:101B00000292009A491C541CA142BFF6CFAD029A22
:101B1000891C521E521E0292A142F8DBC6E5A94260
:101B200004BFA1F1A046B6F5A0663FF4BFADB1F188
:101B3000A04F1CBFA9423A4644F08071946824F03B
:101B4000E07444EA01019160B0E50299491E0291F6
:101B5000FCD1ABE500F0FF03FFFF0700000020FE13
:101B600000000880000300500007005000010050F2
:101B70001000C09068070020400D030070B584B0CD
:101B80004FF0000504002E46029502BF012004B06C
:101B900070BDE06D28B9204600F036F9266684F85D
:101BA000586020688168C1F3407129B1816821F0D3
:101BB0003F0121F02041816020688168C1F30071FC
:101BC00049BB816821F03F0121F0004141F0805183
:101BD0008160834883490068B0FBF1F00290009077
:101BE000C8B1B0F1004F80F0F5800028D8BF0020C8
:101BF00005DD10F0010002D00299491E0291009902
:101C0000401C491C884206DA029A801C521E521E51
:101C100002928842F8DB20688168C1F3007141B903
:101C2000E16D41F01001E165216E41F00101216695
:101C300001258168E26DC1F3800112F0100F08BF29
:101C4000002908D0E06D40F01000E0654FF001057C
:101C500004B0284670BDE16D21F4807141F00201AD
:101C6000E165816811F0010F1AD15F4AB0F1A04F10
:101C700018BF904207D14FF0A0418B68D1F80811EE
:101C800043EA010109E059490968594B1B6841EAD7
:101C90000301584B1B6841EA030111F0010F10D0FA
:101CA000E168E06B627F40EA0100A16841EA4231ED
:101CB00040EA010094F8241040EA0140012914D1BF
:101CC0000DE0B0F1A04F1ABF90424B484B486168FD
:101CD000826822F47C1242EA01018160E0E7218DF2
:101CE000474A02EB414141EA0000E16A31B101F4A7
:101CF0007871226B41EA000042EA00002168CA685C
:101D0000404B02EA030242EA0000C8602068016911
:101D1000626B21F0406141EA020101612068816843
:101D20008268C1F38001C2F3C00211432FD1217F29
:101D300094F83820890341EA4201C26822F0020285
:101D400022F480421143C1602069002820680169A3
:101D50000AD041F4803101612068D0F8C0102269B6
:101D60006FF30D01114307E021F480310161206818
:101D7000D0F8C0106FF30D01C0F8C01094F8400007
:101D800001280CD02068016921F00101016160691E
:101D900001282068016B21F00F0113D10FE0D4E975
:101DA00011010843D4E91312114340EA01022068EB
:101DB00001696FF38A01114341F00101E6E7226AEC
:101DC000521E11430163E06D20F0020040F001005B
:101DD000E0653DE70298401E0290FCD11BE7000041
:101DE00068070020400D0300000100500804005067
:101DF000080500500806005000070050000300507E
:101E00000000FEFF0740F0FF30B587B000253E4AD6
:101E100000950195029503950495036810680324C5
:101E2000411C3A48B3F1A04F29D0A3F1A04CBCF516
:101E3000807C20D0A3F1A041B1F5A0611CBF07B008
:101E400030BDC16C41F48041C164C16C01F480417A
:101E50000591C16C41F01001C164C06C694600F08D
:101E6000100005904FF48040CDE90004284800F0B0
:101E7000C5F907B030BD1160012932D129E01160E8
:101E8000012907D1C16C41F40051C164C16C01F456
:101E900000510591C16C41F00101C164C16C01F0B8
:101EA00001010591C16C41F00201C164C06C694639
:101EB00000F0020005900420CDE900044FF09040AE
:101EC00000F09CF90220CDE9000469460295114812
:101ED00015E0C16C41F40051C164C16C01F40051C2
:101EE0000591C16C41F00101C164C06C694600F00C
:101EF000010005904020CDE900044FF0904000F033
:101F00007DF907B030BD00005807002000100240E6
:101F10000010004800040048002804BF012070475A
:101F200070B5044690F82100002520B984F82050AF
:101F3000204600F00BF865626560A560E5602561EC
:101F40000120656184F82100002070BD006881B027
:101F5000A0F18041B1F503311CBF01B070470548C5
:101F6000816C41F008018164806C00F008000090F1
:101F700001B07047001002402DE9F0470446407957
:101F80000D46012804BF0220BDE8F0874FF001088C
:101F900084F8058002202071A86802F01006042849
:101FA0004DD14FF0030992B12068406B10F0004F03
:101FB0002CD000BF00F034FA012822D9206940F06B
:101FC0000800206184F804900320BDE8F08700F049
:101FD00027FA07462068406B10F4004F0AD000BF74
:101FE00000F01EFAC01B0128E8D82068406B10F4EE
:101FF000004FF5D1012000F0EDF82168686A08640F
:102000000AE02068406B10F0004FD3D1012000F0AF
:10201000E1F82168686A48642068816C40F2FF3208
:10202000B2409143AA6AB240114381642068C16CF6
:10203000FF22B2409143EA6AB2401143C164E869A9
:10204000012808D12168886B1F22B24090432A6A78
:10205000B240104388632068C06B0721B14020EA7A
:102060000101A86910F0010F05D110F0020F5AD13B
:102070006869002857D000206B69AA681A43024398
:102080004FF48070B04021EA0000297901290CBF8B
:102090004FF48071002111434FF40072B24090431D
:1020A0006A79012A0CBF4FF40072002242EA01094A
:1020B00020F440472868022818BF074335D000BFE6
:1020C000216809FA06F03843C863206801684FF4B4
:1020D0008042B240914301602168086840F6FE7278
:1020E000B2409043EA68B24010430860206801683B
:1020F000C022B24091430160287B297CC0F3830059
:1021000001F03C0140EA811021680A6E40F60F732D
:10211000B3409A43B0401043086684F8048000201E
:102120006071BDE8F0870120A6E700F003FE0649D4
:10213000884288BF47F40047C2D80449884288BF14
:1021400047F48047BCE700000068890900B4C40474
:10215000002804BF0120704770B5044600790025AF
:1021600018B96571204600F007F80220207125613A
:1021700001202071002070BD00B587B000210091C2
:1021800001910291039104910068A0F1A041B1F581
:1021900000611CBF07B000BD0D48C16C41F4803127
:1021A000C164C16C01F480310591C16C41F0010141
:1021B000C164C06C694600F00100059010200090D9
:1021C000032001904FF0904000F018F807B000BDD8
:1021D0000010024070B5044600F022F90546B4F143
:1021E000FF3F02D004484068044400F019F9401B46
:1021F000A042FAD370BD00005C0700200B680022EB
:10220000002B08BF70472DE9F84F804EDFF800E241
:1022100001274FF0030A4FF00F0800BF0B6807FAC1
:1022200002F52B4000F0EB80D1F804C0BCF1020FA6
:1022300018BFBCF1120F15D14FEAD20C00EB8C0481
:10224000D4F820904FEA427C4FEADC6C08FA0CFB91
:1022500029EA0B09D1F810B00BFA0CFC4CEA090C76
:10226000C4F820C0D0F800904FEA420C91F804B0B6
:102270000AFA0CF40BF0030B29EA04090BFA0CFB25
:102280004BEA0909C0F80090D1F80490B9F1010FA8
:1022900018BFB9F1020F05D0B9F1110F18BFB9F18C
:1022A000120F18D1D0F80890D1F80CB029EA04091F
:1022B0000BFA0CFB4BEA0909C0F80890D0F804901F
:1022C00029EA050591F80490C9F3001909FA02F901
:1022D00049EA05054560C56825EA04048D6805FAE4
:1022E0000CFC4CEA040CC0F80CC0D1F804C01CF083
:1022F000805F7CD0D6F860C04CF0010CC6F860C09E
:10230000D6F860C00CF0010CCDF800C022F0030C30
:102310000CF1804404F58034A5684FEA827C4FEAD2
:102320001C7C08FA0CF925EA0905B0F1904F08BFAA
:102330004FF0000928D0A0F19049B9F5806908BF95
:102340004FF0010920D0A0F19049B9F5006908BF0C
:102350004FF0020918D0A0F19049B9F5406908BFC3
:102360004FF0030910D0A0F19049B9F5805908BF8A
:102370004FF0040908D0A0F19049B9F5A0590CBF5D
:102380004FF005094FF0060909FA0CFC4CEA050C60
:10239000C4F808C0DEF800C04C682CEA030C14F442
:1023A000803F18BF4CEA030CCEF800C0194CD4F89B
:1023B00000C04D682CEA030C15F4003F18BF4CEA2E
:1023C000030CC4F800C0144CD4F800C04D682CEACB
:1023D000030C15F4801F18BF4CEA030CC4F800C0AE
:1023E0000E4CD4F800C04D682CEA030C00E006E067
:1023F00015F4001F18BF4CEA030CC4F800C00B68AA
:10240000521CD3407FF40AAFBDE8F88F00100240A1
:102410000004014004040140080401400C04014090
:1024200001488068704700005C070020024881680E
:1024300042681144816070475C07002010B5002499
:10244000032000F08FF8042000F008F8002814BFE3
:10245000012400F025F8204610BD000070B50E4E96
:1024600005460024706898B14FF47A71B1FBF0F022
:102470000A490968B1FBF0F000F024FF40B9102DC3
:1024800006D200222946501E00F03AF8356000E0DE
:102490000124204670BD00005C0700206807002072
:1024A0000D4808B5016E41F001010166016E01F0B1
:1024B00001010091816D41F080518165806D00F0D6
:1024C00080500090042000F04DF80448816821F409
:1024D0008041816008BD0000001002400070004093
:1024E0000028B8BF704700F01F01012202FA01F175
:1024F0004009800000F1E020C0F8001170470000A2
:10250000174B10B41B68C3F30223C3F1070CBCF1D3
:10251000040F88BF4FF0040C1C1D072C34BF002390
:10252000DB1E012404FA0CFCACF1010C0CEA0101E5
:10253000994004FA03F35B1E1A40114300284FEA46
:102540000111A1BF00F1E02080F8001410BC704719
:1025500000F00F0000F1E02080F8141D10BC70475F
:102560000CED00E0074900F007000A684FF6FF0392
:102570001A4042EA002040F0FD7040F080600860A0
:10258000704700000CED00E038B504004FF0000586
:102590001FBF94F83A00052894F83A00022804BFB7
:1025A000012038BD3148016E41F001010166006E25
:1025B00000F00100009094F83A00002804BF0020C9
:1025C00084F83900204600F055F8A16828484029D1
:1025D00018BF602921680A68E36A22F0100242EA03
:1025E00003020A60D4E9011241EA020122D0D4E9CF
:1025F000032342EA030241EA0201227D012A0CBFC1
:102600004FF4807200221143626A1143A26A11439F
:10261000228E41EAC24194F8342041EA02622168E4
:102620000B681840104308602068816911F0004F62
:1026300013D108E0237D2269012B0CBF4FF4807376
:1026400000231A43DFE7D4E906121143226A8369A3
:1026500023F03F031A431143816194F83A000028A4
:1026600004BF012084F83A00284638BD001002401B
:10267000113E00E000B587B0002100910191029168
:10268000039104911F4B02681F4803219A420ED107
:10269000C26C42F00102C264C06C00F001000590FF
:1026A0000E20CDE9000169464FF0904026E0174B1F
:1026B0009A4211D1C26C42F00102C264C06C00F0B7
:1026C00001000590E020CDE9000169464FF09040FF
:1026D000FFF794FD07B000BD0D4B9A421CBF07B039
:1026E00000BDC26C42F00202C264C06C00F0020085
:1026F00005900720CDE9000169460648FFF77EFDF9
:1027000007B000BD00030140001002400403014077
:1027100008030140000400482C4932222C4B096870
:102720004A432C4950B1B0F5007F08682BD020F403
:10273000C06040F48060086000207047086800F4C2
:10274000C060B0F5806FD1F8800020F4807002D0B6
:10275000C1F88000F0E7C1F88000086820F4C0608C
:1027600040F400700860B2FBF3F000F101004A6928
:1027700012F4806F1CBF0028401EF8D1486910F485
:10278000806F20D1D8E700F4C060B0F5806FD1F839
:10279000800040F48070DBD1C1F88000086820F42C
:1027A000C06040F400700860B2FBF3F000F101007B
:1027B0004A6912F4806F1CBF0028401EF8D1486996
:1027C00010F4806FB8D04FF0030070476807002006
:1027D00040420F00007000402DE9F84304460068B5
:1027E0000026CC4D10F4002F6CD0A86D002710F0FF
:1027F000805F08D1A86D40F08050A865A86D0127C2
:1028000000F080500090DFF81093D9F8000040F4F9
:102810008070C9F80000FFF703FE8046D9F8000079
:1028200010F4807F0BD100BFFFF7FAFDA0EB08008A
:10283000022833D8D9F8000010F4807FF4D0D5F8FE
:10284000900010F440701CBF216D814211D0D5F86A
:102850009000D5F8901020F4407041F48031C5F814
:102860009010D5F8901021F48031C5F89010C5F87B
:10287000900010F0010F18D0FFF7D2FD8046D5F878
:10288000900010F0020F08BF41F288390DD100BF4F
:10289000FFF7C6FDA0EB0800484501D903260CE070
:1028A000D5F8900010F0020FF2D0D5F89000216D0D
:1028B00020F440700843C5F890001FB1A86D20F0C7
:1028C0008050A865207810F0010F07D0D5F8880057
:1028D000616820F003000843C5F88800207810F0F4
:1028E000020F07D0D5F88800A16820F00C0008433B
:1028F000C5F88800207810F0040F07D0D5F88800BC
:10290000E16820F030000843C5F88800207810F016
:10291000080F07D0D5F88800216920F0C0000843CF
:10292000C5F88800207810F0100F07D0D5F888007F
:10293000616920F440700843C5F88800207810F0E1
:10294000200F07D0D5F88800A16920F44060084323
:10295000C5F88800207810F0400F07D0D5F888001F
:10296000E16920F440500843C5F88800207810F051
:10297000800F07D0D5F88800216A20F44040084332
:10298000C5F88800208810F4807F07D0D5F888002B
:10299000616A20F440300843C5F88800206810F4CC
:1029A000003F07D0D5F89C00A16A20F0030008433F
:1029B000C5F89C00208810F4007F07D0D5F8880067
:1029C000E16A20F440200843C5F88800208810F40C
:1029D000806F0FD0D5F88800216B20F44010084399
:1029E000C5F88800206BB0F5801F03D1E86840F47B
:1029F0008010E860208810F4006F0FD0D5F88800B0
:102A0000616B20F440000843C5F88800606BB0F5A6
:102A1000800F03D1E86840F48010E860208810F44B
:102A2000805F0FD0D5F88800A16B20F0407008437C
:102A3000C5F88800A06BB0F1807F03D1E86840F44E
:102A40008010E860208810F4005F0FD0D5F888006F
:102A5000E16B20F040600843C5F88800E06BB0F1FE
:102A6000006F03D1E86840F48010E860208810F41B
:102A7000804F0FD0D5F88800216C20F040600843CB
:102A8000C5F88800206CB0F1006F03D1E86840F40D
:102A90008010E860208810F4004F0FD0D5F888002F
:102AA000616C20F040500843C5F88800606CB0F1BC
:102AB000805F03D1E86840F48030E860206810F45B
:102AC000803F0FD0D5F88800A16C20F0404008432B
:102AD000C5F88800A06CB0F1804F03D1E86840F4DD
:102AE0008030E860206810F4802F0FD0D5F89C006B
:102AF000E16C20F440100843C5F89C00E06CB0F590
:102B0000001F03D1E86840F48010E8603046BDE85B
:102B1000F883000000100240007000402DE9F047EB
:102B20000E4605004FF000087ED0764F386800F062
:102B30000F00864209D9386820F00F003043386012
:102B4000386800F00F00B0426ED129686E4C11F069
:102B5000010F41F2883A66D06868DFF8B091032827
:102B600006D00228206832D010F4806F5CD031E0AB
:102B7000206810F0007F57D0E06800F00302E068A2
:102B8000C0F30310401C032A19D0614AB2FBF0F0D5
:102B9000E268C2F306225043E268C2F34162521C6B
:102BA0005200B0FBF2F0484520D9A06810F0F00FB9
:102BB00014D011F0020F19D0A86878B116E0554A68
:102BC000B2FBF0F0E268C2F306225043E4E710F4EF
:102BD000003F60D000F0D8F8484507D9A06820F041
:102BE000F00040F08000A0604FF08008A0686968A5
:102BF00020F003000843A060FFF712FC8146A068A4
:102C0000696800F00C00B0EB810F0CD0FFF708FCF6
:102C1000A0EB090050453BD8A068696800F00C00A3
:102C2000B0EB810FF2D100E035E0286810F0020F20
:102C300034D010F0040F03D0A06840F4E060A0602E
:102C4000287810F0080F05D0A06820F4605040F4F8
:102C5000E060A060A068A96820F0F0000843A060D0
:102C6000386800F00F00B04225D9386820F00F0016
:102C700030433860FFF7D4FB8046386800F00F001F
:102C8000B04218D0FFF7CCFBA0EB080050450DD99F
:102C90000320BDE8F0870120BDE8F087B8F1800F80
:102CA00004BFA06820F0F000DAD1D8E7386800F05F
:102CB0000F00B042E6D1287810F0040F05D0A068CC
:102CC000E96820F4E0600843A060287810F0080F5D
:102CD00006D0A068296920F4605040EAC100A060D5
:102CE00000F052F8A1680C4AC1F30311515C01F0E5
:102CF0001F01C8400949086009480068BDE8F0475D
:102D0000FFF7ACBB002002400010024000B4C40436
:102D10000024F40000366E01A88E00086807002029
:102D20005C0700200248016841F4002101607047FF
:102D3000001002400148006870470000680700204A
:102D40000548064900688968054AC1F30221515CBB
:102D500001F01F01C84070476807002000100240C2
:102D6000B88E00080548064900688968054AC1F31D
:102D7000C221515C01F01F01C84070476807002064
:102D800000100240B88E00081849886800F00C0254
:102D90001748042A08BF70478A6802F00C03154AD6
:102DA000082B04BF104670478B684FF00C0C3CEAB0
:102DB00003031CBF00207047CB6803F0030CCB68F3
:102DC000C3F303135B1CBCF1030F14BFB0FBF3F0A0
:102DD000B2FBF3F0CA68C968C2F306225043C1F3DC
:102DE0004161491C4900B0FBF1F0704700100240FE
:102DF0000024F40000366E01002804BF0120704753
:102E00002DE9F84305460078FF4F10F0010F55D02B
:102E1000B868F96800F00C0001F003010C2802D03A
:102E2000082820D001E003291DD06868B0F5803F54
:102E300022D0B0F5A02F38680CBF40F4802020F4D9
:102E40008030386038680CBF40F4803020F4802037
:102E50003860686800B3FFF7E3FA0446386810F496
:102E6000003F0ED02AE0386810F4003F26D0686892
:102E7000002800F0208221E0386840F4803038607B
:102E8000E7E7FFF7CDFA001B642800F28481386879
:102E900010F4003FF5D011E0FFF7C2FA044638689D
:102EA00010F4003F0AD000BFFFF7BAFA001B6428F5
:102EB00000F27181386810F4003FF5D1287810F0E5
:102EC000020F58D0B86800F00C01F8680C2900F027
:102ED000030002D0042911D001E002280ED0E868D6
:102EE0000028386833D040F480703860FFF798FAD3
:102EF0000446386810F4806F17D020E0386810F46A
:102F0000806F03D0E868002800F0D5817868297CBC
:102F100020F0FE4040EA01607860BC480068FFF79E
:102F20009DFA002840F0C78125E0FFF779FA001BE1
:102F3000022800F23081386810F4806FF5D078688C
:102F4000297C20F0FE4040EA0160786013E020F424
:102F500080703860FFF764FA0446386810F4806FB8
:102F600009D000BFFFF75CFA001B02287ED8386842
:102F700010F4806FF6D1287810F0080F32D068690D
:102F80000028D7F8940016D040F00100C7F894004C
:102F9000FFF746FA0446D7F8940010F0020F21D14B
:102FA000FFF73EFA001B022860D8D7F8940010F013
:102FB000020FF5D016E020F00100C7F89400FFF7EB
:102FC0002FFA0446D7F8940010F0020F0AD000BF81
:102FD000FFF726FA001B022848D8D7F8940010F013
:102FE000020FF5D1287810F0040F78D0B86D4FF0AB
:102FF000000810F0805F09D1B86D40F08050B865CE
:10300000B86D4FF0010800F080500090804E30689D
:1030100010F4807F13D1306840F480703060FFF787
:10302000FFF90446306810F4807F08D1FFF7F8F903
:10303000001B02281AD8306810F4807FF6D0A868E8
:10304000012821D00528D7F890000CBF40F00400DB
:1030500020F00100C7F89000D7F890000CBF40F0B6
:10306000010020F00400C7F8900000E093E0A86899
:1030700041F28836D0B1FFF7D3F90446D7F8900073
:1030800010F0020F07D023E0D7F8900040F00100C5
:10309000C7F89000E9E7FFF7C3F9001BB0427AD800
:1030A000D7F8900010F0020FF5D011E0FFF7B8F953
:1030B0000446D7F8900010F0020F09D0FFF7B0F9DE
:1030C000001BB04267D8D7F8900010F0020FF5D17E
:1030D000B8F1000F03D0B86D20F08050B8652878A3
:1030E00010F0200F32D0A8690028D7F8980016D029
:1030F00040F00100C7F89800FFF792F90446D7F8AE
:10310000980010F0020F21D1FFF78AF9001B022866
:1031100041D8D7F8980010F0020FF5D016E020F053
:103120000100C7F89800FFF77BF90446D7F898002C
:1031300010F0020F0AD000BFFFF772F9001B02283F
:1031400029D8D7F8980010F0020FF5D1E869E8B354
:10315000B9683C460C2232EA01017BD00228206883
:1031600020F08070206019D0E06820F00300E0605B
:10317000E06820F4881020F08070E060FFF750F9DC
:103180000546206810F0007F20D000BFFFF748F907
:10319000401B022859D90320BDE8F883FFF740F906
:1031A0000646206810F0007F09D000BFFFF738F90D
:1031B000801B0228EFD8206810F0007FF6D1D5E9F7
:1031C00008016FF00F0202EB011100E076E0084306
:1031D000298E5204490802EB4151AA6A41EA0221B0
:1031E000084395F834104FF07E42490802EB4161E4
:1031F000084395F82C1040EAC160E168054A114087
:103200000843E060206807E0001002405C070020EF
:10321000007000400C809F0140F080702060E068EA
:1032200040F08070E060FFF7FBF80546206810F082
:10323000007F43D1FFF7F4F8401B0228ABD8206889
:1032400010F0007FF6D039E004E0206810F0007F35
:103250009CD133E0012808BFBDE8F883E0682A6A02
:1032600000F00301914226D1696A00F0F0020901E1
:10327000103991421FD1AA6A00F4FE41B1EB022F2E
:1032800019D195F82C2000F07841B1EBC26F12D122
:10329000298E00F4C00249084905A1F500119142A8
:1032A00009D195F8341000F0C06049084906A1F131
:1032B0000071814202D00120BDE8F8830020BDE802
:1032C000F8837047411EB1F1807F24BF0120704711
:1032D0004FF0E0204161054AF02182F8141D0021E1
:1032E0008161072101610020704700000FE000E0CC
:1032F00010B5FFF7E6FF10BD90F83C20012A04BF8F
:103300000220704770B4012280F83C20CA688B68A4
:1033100022F440721A434B6822F480621A430B680D
:1033200022F400621A430B6922F480521A434B695B
:1033300022F400521A430B6B22F480421A430B8B87
:1033400022F4702242EA0343DFF868C002681A4C94
:103350001A4D62451CBFA242AA4204D1CE6923F095
:10336000805343EA060362451CBFA242AA4218D119
:103370000E8D23F4700343EA06530E6A23F0807324
:1033800043EA06034E6A23F0007343EA06036245EC
:103390001CBFA242AA4204D1C96A23F0005343EAE7
:1033A000010353644FF0000180F83C1070BC0846E4
:1033B00070470000002C01400034014000500140E3
:1033C00090F83C20012A04BF0220704730B44FF02F
:1033D000010C80F83CC0022280F83D20026853684E
:1033E0009468A2F18045B5F596351FBFA2F18045DE
:1033F000B5F59A35A2F18045B5F5A83503D14D68EC
:1034000023F470032B4323F070030D6823F0007343
:103410002B43896824F08004214353600268916043
:1034200080F83DC0002180F83C1030BC0846704751
:10343000002804BF0120704710B5044690F83D00F5
:1034400028B9002084F83C00204600F00DF8022046
:1034500084F83D00211D206802F06CFF012084F8F3
:103460003D00002010BD0000006881B0A0F1804147
:10347000B1F596311CBF01B070470548016E41F4AB
:1034800000610166006E00F40060009001B07047BA
:103490000010024000B587B0002100910191029117
:1034A000039104910068A0F18041B1F596311CBFF1
:1034B00007B000BD0B48C16C41F01001C164C06C85
:1034C000694600F0100005904FF47C5000900220F7
:1034D00001900290039004900348FEF78FFE07B01E
:1034E00000BD000000100240001000482DE9F05F10
:1034F000044690F83C000D4601280DBF022001262D
:1035000084F83C60BDE8F09F022084F83D00B74F8E
:10351000DFF8DC82DFF8DC92B749B84BDFF8E0C2B5
:103520000C2A7DD006DC6AB1042A1ED0082A32D0CB
:1035300000F054B9102A00F0D180142A00F00E8156
:1035400000F04CB92946206802F062FF20688169CA
:1035500041F0080181612068816921F004018161E5
:10356000206881692A69114312E02946206802F027
:10357000A9FF2068816941F4006181612068816947
:1035800021F480618161206881692A6941EA022110
:10359000816100F023B92068026A22F4807202621D
:1035A000026AD0F804A0D0F81CB0D5F800E02BF0E7
:1035B000730B2BF4803B4EEA0B0BD5F808E022F49A
:1035C000007242EA0E2288421CBF9842604507D131
:1035D000D5F80CE022F4006242EA0E2222F4806266
:1035E000884218BF984207D0B84218BF404503D060
:1035F000484518BF604507D16B692AF4405141EA3C
:103600000311AB6941EA031AC0F804A0C0F81CB06A
:103610006968C16302622068C16941F0080100E085
:103620000BE0C1612068C16921F00401C16120681B
:10363000C1692A6941EA02014EE02068026A22F467
:1036400080520262026AD0F804A0D0F81CB0D5F80B
:1036500000E02BF4E64B2BF0807B4BEA0E2BD5F8E9
:1036600008E022F4005242EA0E3288421CBF98421F
:10367000604507D1D5F80CE022F4004242EA0E3250
:1036800022F48042884218BF984207D0B84218BF3F
:10369000404503D0484518BF604507D16B692AF4FF
:1036A000404141EA8311AB6941EA831AC0F804A0A2
:1036B000C0F81CB06968016402622068C16941F405
:1036C0000061C1612068C16921F48061C161206825
:1036D000C1692A6941EA0221C1617FE02068026A6A
:1036E00022F480320262D0F820B04268D0F850A0B4
:1036F000D5F800E02AF0700A2AF4803A4EEA0A0A65
:10370000B5F808E02BF4003B4BEA0E4B884218BF9B
:10371000984207D0B84218BF404503D0484518BF6B
:10372000604504D122F480316A6941EA0222426094
:10373000C0F850A069688164C0F820B02068016DAD
:1037400041F0080101652068016D21F00401016567
:103750002068016D2A6941EA02013EE02068026AA0
:1037600022F480120262D0F820B04268D0F850A053
:10377000D5F800E02AF4E04A2AF0807A4AEA0E2AD4
:10378000B5F808E02BF4001B4BEA0E5B884218BF2B
:10379000984207D0B84218BF404503D0484518BFEB
:1037A000604504D122F480216A6941EA82224260A4
:1037B000C0F850A06968C164C0F820B02068016DED
:1037C00041F4006101652068016D21F480610165AB
:1037D0002068016D2A6941EA0221016584F83D6093
:1037E0004FF0000084F83C00BDE8F09F004001402D
:1037F0000044014000480140002C014000340140D9
:1038000000500140002804BF0120704710B5044655
:1038100090F83D0028B9002084F83C00204600F0D4
:103820000CF8022084F83D00211D206802F082FD82
:10383000012084F83D00002010BD704770B504469B
:1038400090F83C00012804BF022070BD012584F8D7
:103850003C50022084F83D00204602F083FE010027
:103860004FF0000005D084F83D5084F83C00012062
:1038700070BD2168CA6822F04002CA602168CA6827
:1038800022F48042CA6084F83D5084F83C00002055
:1038900070BD90F87C10012904BF022070470121FF
:1038A00080F87C102421C0F8801001680A680B6839
:1038B00023F001030B6022F00051002242660368EE
:1038C00019602021C0F8801080F87C2010467047D5
:1038D00090F87C10012904BF0220704710B4012128
:1038E00085B080F87C102422C0F88020026813681C
:1038F000D2F800C02CF0010CC2F800C043F0005216
:103900004B07436603681A601BA3D3E90023CDE984
:1039100000231BA3D3E90023CDE90223426E002A32
:1039200004BFA0F86A10A0F868101AD00268916865
:103930009268C1F34261520F1DF802C04FEACC04F5
:103940000DF1080C1CF80220B4FBF2F4A0F86A4058
:103950001DF801201CF80110D200B2FBF1F2A0F812
:1039600068202021C0F88010002180F87C1005B06C
:10397000084610BC70470000010101030701000068
:10398000080402040801010190F87C20012A04BF08
:103990000220704730B4012384B080F87C302422A8
:1039A000C0F880200268D2F800C0146824F0010436
:1039B00014600268946824F06064214391601B499C
:1039C000D1E90021CDE90021194AD2E90012CDE95F
:1039D0000212416E002904BFA0F86A30A0F86830D6
:1039E00016D001688A688968C2F34262490F1DF8DF
:1039F0000140E50002AC615CB5FBF1F5A0F86A504E
:103A00001DF80210A25CC900B1FBF2F2A0F8682018
:103A10000168C1F800C02021C0F88010002180F8A2
:103A20007C1004B0084630BC7047000078390008AC
:103A30008039000890F87C20012A04BF02207047DA
:103A400030B4012384B080F87C302422C0F8802078
:103A50000268D2F800C0146824F0010414600268FF
:103A6000946824F06044214391601B49D1E900210E
:103A7000CDE90021194AD2E90012CDE90212416EC6
:103A8000002904BFA0F86A30A0F8683016D0016899
:103A90008A688968C2F34262490F1DF80140E50057
:103AA00002AC615CB5FBF1F5A0F86A501DF802109C
:103AB000A25CC900B1FBF2F2A0F868200168C1F86D
:103AC00000C02021C0F88010002180F87C1004B0D4
:103AD000084630BC7047000078390008803900087B
:103AE000002804BF0120704710B50446D0F88000BC
:103AF00028B9002084F87C00204600F029F8242012
:103B0000C4F880002068016821F0010101602046AE
:103B100003F0B2F8012808BF10BDA06A00281CBF3E
:103B2000204603F00BF82068416821F49041416081
:103B30002068816821F02A0181602068016841F0D5
:103B4000010101602046BDE8104003F064B80000A8
:103B500000B587B000210091019102910391049179
:103B60000068A0F18041B1F588411CBF07B000BDDD
:103B70000E48816D41F400318165816D01F40031A1
:103B80000591C16C41F00801C164C06C694600F048
:103B9000080005906020009002200190072004900A
:103BA0000348FEF72BFB07B000BD000000100240E9
:103BB000000C004802F052FD174C0825D4F82001F3
:103BC000C06910F0080F07D0134803F070FDD4F857
:103BD0002001056204F0FAF9D4F82001C06910F060
:103BE000800F1CBF0C4803F00CFED4F82001C16903
:103BF00011F0200FE2D0406AC1B2074803F062FD25
:103C00000088012804D0022808BF04F0DFF9D5E7B6
:103C100004F0D6F9D2E70000CC050020012908BF46
:103C2000002124D0042908BF012120D0102908BF79
:103C300002211CD0402908BF032118D0B1F5807F94
:103C400008BF042113D0B1F5806F08BF05210ED045
:103C5000B1F5805F08BF062109D0B1F5804F08BFDC
:103C6000072104D0B1F5803F0CBF08210921064A85
:103C70001830525C10440268044B595C082303FA64
:103C800001F1114301607047C08E0008CA8E000820
:103C9000012908BF002124D0042908BF012120D018
:103CA000102908BF02211CD0402908BF032118D0C9
:103CB000B1F5807F08BF042113D0B1F5806F08BF34
:103CC00005210ED0B1F5805F08BF062109D0B1F5FE
:103CD000804F08BF072104D0B1F5803F0CBF0821F9
:103CE0000921084B18305B5C1844D0F800C0064B23
:103CF000595C064B8B402CEA030302FA01F119438D
:103D000001607047C08E0008CA8E00087300010071
:103D100010B50446406802F0D4F9A168086110BDEE
:103D20000068012102F037BA002808BF704710B5BB
:103D30000446007E012818BF10BD217B0020012908
:103D400004D0022910D003291ED026E0A16881F8F2
:103D500024000121606802F0E2F9E28AB4F90E1051
:103D6000606802F05DF90CE0A16881F82400002190
:103D7000606802F0D4F9E28AB4F91010606802F0C9
:103D80004FF950B1022009E0A168012081F8240018
:103D9000A068D4F812100161F4E70320207610BD6A
:103DA00001230373C181C2820376437670470223E5
:103DB00003730182C282012101760021417670479E
:103DC000006802F0B6B910B5406802F090F9BDE89D
:103DD000104002F0ACB8407E7047806800687047C1
:103DE000806840687047027B0121012A04D0022AC2
:103DF00007D0032A0AD00FE0B0F90E0000280BDA32
:103E000008E0B0F91000002806DA03E0B0F912006B
:103E1000002801DA4FF0FF31084670478068C0681B
:103E20007047806800697047027B0021012A08BF43
:103E3000B0F90E1008467047406802F04CB90068AF
:103E400002F0A2B98068B0F91E0070478068D0F80F
:103E50001A0070478068D0F8160070478360C0E988
:103E6000001200210173C1810182C1820176704775
:103E7000032202734182091481820121017600210B
:103E8000417670478268518280688182704710B5A0
:103E900004460068032102F07EF900281CBF0121BE
:103EA000217610BD0068072102F075B9406802F064
:103EB0003CB90000014661F30F0044F6E61211FB25
:103EC00002F244F6E61311FB23F10A44114449427D
:103ED000C913B1F5004FA8BF47F6FF7104DA11F519
:103EE000004FB4BF054909B261F31F4011F5004FFF
:103EF00004BF48F2010161F31F4070470080FFFFDB
:103F000070B50546084600F059F82AB203B212FB14
:103F100003F14FEA254C05141CFB05F0081AC013E9
:103F20001649B0F5004FA8BF47F6FF7004DA10F548
:103F3000004FB4BF084600B260F30F04104E10F5F6
:103F4000004F08BF66F30F0412FB05F01CFB03F2E1
:103F50001044C013B0F5004FA8BF47F6FF7103DA55
:103F600010F5004FA8BF01B2204661F31F4011F5C4
:103F7000004F08BF66F31F4070BD00000080FFFFC8
:103F80000180FFFF10B50446084600F017F814FB47
:103F900000F12214031412FB03FC61444FEAE13CDC
:103FA00029466CF30F0114FB03F312FB00F0C01A57
:103FB000C01360F31F41084610BD00000449034AC6
:103FC0000A60A0EB8220486088687047400060006B
:103FD000000C0240F8B58C460446DDE90710069F48
:103FE000C4F830C0C4E9300108481E4615460090A8
:103FF000074B084A21466046FCF71AFFE763C4E90D
:104000000D56204600F096FBF8BD00001940000850
:10401000214000082D47000810B500F08BFB10BDB3
:104020002DE9F04105468CB00020984614460E4616
:104030008DF804004F0912D07A1E0021284603F0A3
:10404000DDFF002808BF0B2000F05082D5F8C40027
:1040500006F01F0618B17A1E002103F0CFFF132EC1
:1040600080F04C83DFE806F0BE0AACBDBCBCBBBA36
:10407000B9B8B7B6B5B4BCBCBCBCBE002678052088
:104080008DF80800472E70D028DC0F2E7ED00BDC78
:104090000F2E6BD2DFE806F055929263927A7A7A0D
:1040A0007A7A7A7A7A7A7A00172E6FD009DCA6F1BA
:1040B000100007285AD2DFE800F072728181696926
:1040C00069001D2E5BD004DC182E5FD01C2E4ED054
:1040D00074E0412E5AD0462E61D06FE0652E55D047
:1040E0001EDC572E52D00EDC542E4FD006DC482E4C
:1040F00055D04F2E18BF532E48D05FE0552E18BF15
:10410000562E5BD142E05B2E49D004DC582E18BFFE
:10411000592E53D13AE0612E18BF642E4ED135E0AE
:10412000A6F17400152849D2DFE800F019393939B1
:10413000393948484839394848484848484830306B
:104140003000647831462246D5F8C40003F056FFAB
:1041500022463146284603F051FF00F02ABA627821
:104160003146284603F04AFF23E218E026E0627851
:104170000021D5F8C40003F03CFF012019E2627869
:104180000121D5F8C40003F034FF7BE16078A17809
:1041900000EB01223146284603F030FF09E2607847
:1041A000A178227900EB0120E178090401EB02619A
:1041B00042183146284603F021FFFAE1022095E13A
:1041C000217803208DF80800892980F08E810AE08B
:1041D000DCE174E25CE24AE221E2EDE1C3E193E179
:1041E0008CE287E11AE28800784440688744000046
:1041F00024020000BE02000024020000240200008D
:10420000BE02000098020000980200009802000020
:104210009802000098020000980200009802000036
:104220009802000098020000980200009802000026
:104230009802000098020000980200009802000016
:104240009802000098020000980200009802000006
:1042500098020000980200009802000098020000F6
:104260004802000074020000BE0200009802000034
:10427000980200009802000024020000FA020000E8
:10428000FA020000FA020000FA020000FA0200003E
:10429000FA020000FA020000FA020000FA0200002E
:1042A000FA020000FA020000FA020000FA0200001E
:1042B000FA020000FA020000FA020000FA0200000E
:1042C000FA020000FA020000FA020000FA020000FE
:1042D000FA020000FA020000FA020000FA020000EE
:1042E000FA020000FA020000FA020000FA020000DE
:1042F000FA02000098020000FA020000FA02000030
:10430000FA020000FA020000BE020000BE02000035
:10431000BE0200009802000098020000980200000F
:104320009802000024020000BE0200009802000073
:104330009802000098020000980200009802000015
:104340009802000098020000980200009802000005
:10435000980200009802000024020000BE02000043
:10436000FA02000098020000980200009802000083
:104370009802000098020000FA020000FA02000011
:1043800098020000980200002402000024020000AD
:10439000BE020000BE020000BE020000BE0200001D
:1043A000BE020000240200009802000098020000F3
:1043B000BE020000FA02000098020000980200000D
:1043C00024020000BE020000BE020000BE02000087
:1043D000BE020000BE020000BE020000BE020000DD
:1043E000BE020000BE020000BE020000BE020000CD
:1043F00024020000FA02000024020000E40200008F
:10440000E4020000E40200009802000098020000AC
:104410009802000001AA284603F0A4FA00909DF833
:104420000400002800F07581D5E90C0C01236A46D0
:10443000F02100F040B900BFD5F8C400002800F01A
:104440005F81002103F084FA8DF80000D5E90C0C9F
:1044500001236A46F021E04701208DF804000CB0EA
:10446000BDE8F081D5F8C400002800F049810121A1
:1044700003F06EFA8DF80000D5E90C0C01236A46B2
:10448000F021E047012094E001AA284603F06AFAEF
:1044900000909DF80400002800F03B81D5E90C0C49
:1044A00002236A46F021E0470CB0BDE8F08101AA82
:1044B000284603F057FA00909DF80400002800F009
:1044C0002881D5E90C0C04236A46F021E0470CB0A2
:1044D000BDE8F08101AA284603F044FA00909DF857
:1044E00004000028EDD100F014B903208DF8080075
:1044F00000F006B9217807208DF80800284603F05F
:10450000CDF98DF80400FBE0002004A902460A540E
:10451000401CC0B22028FAD3002005E00B18401C34
:10452000C0B2DA701D2804D2D5F8C020125C092A66
:10453000F4D1D5F8C010421D20238A5C8DF81020DC
:10454000C21D0930895C8DF81110D5F8C01004AA7D
:10455000085C8DF81200D5E90C0CF021E047012031
:104560008DF80400CFE020796179E37800EB012039
:1045700082B22078617800EB0120A178090401EB78
:1045800003610144284603F0C1F912E02079617902
:10459000E37800EB012082B22078617800EB012003
:1045A000A178090401EB0361084401B2284603F035
:1045B000C5F98DF80400A3E006A80090217807ABA8
:1045C00003AA284603F09CFCBDF91C005449C0EB2B
:1045D0000010800081FB00108110A1EBE0708DF8CD
:1045E0001000010A8DF81110010C8DF81210000E48
:1045F0008DF81300BDF818008DF81400000A8DF82E
:104600001500BDF80C008DF81600000A8DF8170093
:10461000D5E90C0C082304AAF021E04770E0E0790A
:10462000227AA37800EB022082B2607894F804C06A
:1046300000EB0320E37821781B0403EB0C631844A0
:1046400000EB80004300DFF8DCC00020CCFB03035C
:104650005811A0EBE37003B2607994F806C000EB48
:104660000C2000B20090284603F0ECFDA1E7217871
:104670006078E27801EB002001B2A07800EB022024
:1046800002B2284603F0A8FC01208DF804003AE0AD
:104690000C208DF8080004948DF81480224904A899
:1046A00003F05EF98DF8040050B31F48F021037940
:1046B0000268D5E90C0CE0470CB0BDE8F0810020A1
:1046C00004AA04E01154401CC0B220280DD2D5F831
:1046D000C010095C0029F5D1202838BF002104D280
:1046E0001154401CC0B22028FAD3D5E90C0C202369
:1046F000F021E04701208DF8040004E00120F5E6F8
:104700009DF8040028B10023D5E90C0C1A46F021CD
:10471000D1E7D5E90C0C012302AAFF21CBE7000069
:1047200067666666898888880C00002010B500F0EE
:1047300001F810BD10B50446006BE16B884780207E
:1047400084F8C800A16B206BBDE81040084700004A
:1047500001480068FFF773BB04000020064800789A
:10476000002808BF704710B500F008F802F07AF989
:10477000BDE8104003F004BC0807002010B50E4C43
:104780002078012818BF10BD608800281CBF6088F1
:10479000401E02D102F024F801206080A08810B1F0
:1047A000A088401EA080E088002808BF10BDE088D7
:1047B000401EE08010BD000008070020014800688E
:1047C000FFF765BB0400002001480068FFF76ABBE3
:1047D000040000202DE9F34F81B05A4801F0D6FCC7
:1047E000594E002406F12C01347058480860A1F19C
:1047F00008085748C8F8000000F052FD04F040FADD
:10480000544800F072F906F1100B5248CBF8000042
:1048100006F10C05504828605048FCF739F8DBF8E1
:1048200000104E4A286801F06AFC4D4803F06CFE07
:10483000D8F8000000904B4B494A4B482968FBF7D9
:1048400005FE4A4800F051F9494800F04EF905F1DB
:1048500008094648C9F8000005F10C0A4448CAF89E
:1048600000004448F06101F057FB05F11C0142488B
:104870000860F169414FC0E94371414800F00AF90D
:1048800005F114003E49016005F124013D4808602E
:1048900001F0DFFA0020FCF7EDFA012087F8240090
:1048A000286801F00EFC3861286801F00AFC001449
:1048B000B88207F128002F1FA0F12803386005F106
:1048C00028012A68FFF7CAFA286801F00AFC3B6849
:1048D000014600221846FFF763FA01983968016023
:1048E0002948DBF800100160D9F800104160DAF8BF
:1048F0000010C0E90214D8F8001001611A494161A2
:104900001649C0E90614164901622968416205F199
:104910002801816214390968C162F169C0E90C1487
:1049200005F11C0184630968C0E90F1444648464C0
:10493000C4640465029908600120307003B0BDE8CA
:10494000F08F00003C070020080700201805002019
:104950005802002028010020AC010020080300209C
:10496000D002002030040020E0010020540100208B
:10497000800100206C04002014000020780A002030
:104980004404002000050020BC0A0020B0F80031DB
:10499000002220F81310B0F80031A0F802315B1C9F
:1049A0009BB2A0F80031802B24BF0023A0F8003177
:1049B0005FF0000330F913C05B1C9BB26244802B94
:1049C000F8D3D31702EB5362D211A0F804210846A2
:1049D000704700210A4620F81120491C89B280291D
:1049E000F9D3A0F80021A0F802217047B0F9040122
:1049F0007047000008B5FEF79DF94FF4FA61B0FB6F
:104A0000F1F0FEF75FFC0749081FFFF7E3FE04F033
:104A1000A7F8044B04481A1F00900121101F03F04F
:104A20002DFC08BD08000020528D000810B504467A
:104A30000078002818BF002012D194F8260001F059
:104A4000B9F8A0F57F41FF3907D0218B238A4A1E90
:104A500003FB0200B0FBF1F02082204600F02CF8AE
:104A6000E08280B210BD00210182704701780029E8
:104A700018BF808A01D000B27047018A026A891A81
:104A8000B0F91E20808C5143CA1701EB124100EB94
:104A90002140F0E710B50446007820B10020E08204
:104AA000608A208210BD201D01F0E4F884F8260001
:104AB0002046FFF7D8FF10BD018A428B914284BF88
:104AC00008207047828B8A428CBF0020C08A7047C2
:104AD000B0F922007047B0F906007047408B70476C
:104AE000B0F904007047008B7047018881804188CD
:104AF000C180018C418400218160816270478160A6
:104B0000704741847047C1807047818070470000C2
:104B100070B4B0F90420002402FB01F6B0F90620BD
:104B2000B0F914C0B0F91630002A04BF002181602A
:104B300014D085684A43A91805D5002DC4BF002AA2
:104B40006FF0004103E0002DBCBF002A0F49C2688E
:104B50008A42A5BF0269914282608160827F81683A
:104B6000057F41FA02F246FA05F52A446245C4BFC0
:104B7000ACEB0204624603DC9342C4BF9C1A1A46A3
:104B80002144816070BC10B27047000001000080B9
:104B900070B5D0F80C110446C868D1F8161010FB97
:104BA00001F210FB3121C81701EB10400514D4F8B5
:104BB000100103F0EFFBD4F8081148434FF41671CD
:104BC00090FBF1F0684300EB40000849400081FB96
:104BD00000108110A1EBE071C81701EB1040011427
:104BE0002046BDE87040FFF7D1BE000067666666EC
:104BF000C169084770B50446002511B1012908D0E4
:104C000017E000F007F9B4F85200A4F8440080B9A6
:104C10000BE0B4F84400002808BF012509D0401E6D
:104C20000004000CA4F8440003D121692046884701
:104C30000125284670BD4268104730B4038E0AB281
:104C400053430A14B0F850104A435200524202EB48
:104C5000030CA2EB03030CEBDC7C03EBD3735FEAE6
:104C60006C0C4FEA63034FEA910153D5002B18DA1D
:104C7000042280F83A20ACEB0302D41702EB943202
:104C800001EBA241DA1703EBD23201EB62434FEAA8
:104C9000EC720CEBD232A1EB624CA0F83CC0C187A5
:104CA0006CE0002A1BDC4FF0030C80F83AC0A2EB4A
:104CB000030C4FEAEC740CEB943C01EBAC414FEA73
:104CC000E37C03EBDC334FEAE27C01EB634302EB72
:104CD000DC32A3EB624CA0F83CC0C38717E0022390
:104CE00080F83A30ACEB0203DC1703EB943301EBB2
:104CF000A3414FEAEC730CEBD333A1EB634CD31716
:104D000002EBD3320CEB62438387A0F83EC0A0F8DD
:104D1000401052E0002B17DB012280F83A20ACEB68
:104D20000302D41702EB943201EBA241DA1703EB32
:104D3000D23201EB62434FEAEC720CEBD232838742
:104D4000A1EB624CC18736E0002A1ADC052380F80B
:104D50003A30ACEB0203DC1703EB943301EBA341D5
:104D60004FEAEC730CEBD333A1EB634CD31702EB9C
:104D7000D33281870CEB6243A0F83EC0A0F84030EC
:104D80001BE04FF0000C80F83AC0A2EB030C4FEA96
:104D9000EC740CEB943C01EBAC414FEAE37C03EB8D
:104DA000DC3301EB63434FEAE27C02EBDC328187C8
:104DB000A3EB624CC387A0F840C089B29AB2418687
:104DC00082861FFA8CF3C386B0F84EC0BCF1010F87
:104DD00002D0816930BC0847B0F948C0BCF1000F6F
:104DE000B0F854C0CCBF6144A1EB0C014186B0F9CE
:104DF0004A1000291FFA8CF1CCBF1144511A818648
:104E0000B0F94C1000291FFA8CF1CCBF1944591A83
:104E1000C186DEE781680847C168084741690847DD
:104E2000816882B021F03F0121F0204181608168DA
:104E3000C1F3007141BB816821F03F0121F00041C5
:104E400041F0805181602D492D4A0968B1FBF2F192
:104E500001910091C1B1B1F1004F4AD20029D8BFF0
:104E6000002105DD11F0010102D0019A521E0192CC
:104E7000009A491C521C914206DA019B891C5B1E58
:104E80005B1E01939142F8DB816821F03F0121F024
:104E9000404141F0004181608168C90FFCD1016847
:104EA00011F0010F0BD1816821F03F0121F0004189
:104EB00041F001018160016811F0010FF3D08168B8
:104EC00021F03F0121F0004141F00801816081683B
:104ED00021F03F0121F0004141F020018160C168D3
:104EE00021F4001121F0004141F40011C16002B031
:104EF00070470199491E0191FCD1C5E76807002060
:104F0000400D030090F8701091B9416F91F8BA20EC
:104F1000022A0DD10A6AB1F8AC109162416F4A6A57
:104F2000B1F8AE109162426F916AB2F8B0208A6215
:104F3000012180F86E1046307047416F89684A6CD5
:104F400042F480624A64012180F86F1080F870108A
:104F5000463070472DE9F0470446406F0026D0E9FF
:104F60000185D0F80090E6652666666684F86C6078
:104F7000286A20F0550020F4A06028625149616041
:104F80005149A1618021A4F86A10042784F86D704A
:104F9000204684F83A7000F03EFD4C4869680140B4
:104FA0007029FBD1D9F8080020F03F0020F0004024
:104FB00040F00800C9F80800D8F8080020F03F00C9
:104FC00020F0004040F00800C8F80800606F04F1CD
:104FD0006C0304F1380190F8BB20284603F086FEEC
:104FE000204600F0EBFC84F86C603948606084F87F
:104FF0006D6084F83A60204600F00DFD606F04F1AA
:105000006C0304F1380190F8BB20284603F06EFED3
:10501000204600F0D3FCE06D30490009E065206EC9
:1050200000092066606E000960662A4860602A48B0
:10503000A0610A7805F1180002EB000CDCF8008092
:1050400001F10A02082392F8009003FA09F928EA0C
:105050000908CCF8008091F802C08444DCF8008094
:1050600092F8029003FA09F928EA0908CCF80080BE
:10507000097908440168127903FA02F29143016048
:10508000B4F868006863B4F86800A863B4F868000E
:10509000E86301212846FEF7C1FD10212846FEF7EE
:1050A000BDFD4FF480712846FEF7B8FD296A40F235
:1050B00055500843286284F83A7084F87060BDE85F
:1050C000F0870000015200089158000870000002AB
:1050D00059520008E1500008C5580008C08E000869
:1050E00070B490F83AC0436F4C2404EB8C049A6877
:1050F0001C592568642404EB8C041B591C685368F4
:1051000023F0700323F0007353603C4A530CBCF14E
:10511000060F64D2DFE80CF01D404003031DD0F8F9
:105120005CC0ACEB050C1CF5004FD8BF0A8005DD58
:10513000BCF5004FACBF0B80A1F800C0D0F860C038
:10514000ACEB040C1CF5004F45DDBCF5004F3DDA1F
:1051500043E0D0F860C0ACEB050C1CF5004FD8BFA5
:105160004A8005DDBCF5004FACBF4B80A1F802C002
:10517000D0F864C0A4EB0C0CB1F90240ACEB040C09
:10518000BCF5004FA8BF0B8029DA1CF5004FD4BF37
:105190000A80A1F800C022E0D0F85CC0ACEB050C9E
:1051A0001CF5004FD8BF0A8005DDBCF5004FACBF31
:1051B0000B80A1F800C0D0F864C0A4EB0C0CB1F9CE
:1051C0000040ACEB040CBCF5004F01DB4B8006E06B
:1051D0001CF5004F01DC4A8001E0A1F802C00A88FA
:1051E000A0F848204A88A0F84A200A884988114433
:1051F0004942A0F84C1070BC704700000180FFFFCE
:1052000030B490F86D40426F4FF04C0C0CEB840CB6
:10521000936852F80CC0DCF800C0642505EB8404E8
:10522000125912685C6824F0700424F000745C6009
:1052300090F86C30102B0AD2C36D6344C365036EC3
:105240001A44026690F86C20521C80F86C200020F2
:105250000880488030BC704710B4436F90F86DC030
:10526000642404EB8C0C9A6853F80C301B68D2F859
:1052700004C02CF0700C2CF0007CC2F804C090F834
:105280006C20102A07D2426E1A44426690F86C20B5
:10529000521C80F86C2000200880488010BC7047A9
:1052A0002DE9F04F0546406F83B0D0E90B13D0E9EC
:1052B000032AD0E90687D0F814900293436B019338
:1052C000836B0093D0E9004B8668606820F004008F
:1052D000606004202060636823F020036360202363
:1052E0002360DBF804C02CF0040CCBF804C0CBF82E
:1052F0000000DBF8040020F02000CBF80400CBF81D
:1053000000308148A6F18043B3F5963303690CBFA2
:1053100043F4006343F4005303618AB1106818B189
:10532000036843F001030360506818B1036843F059
:1053300001030360906818B1026842F00102026044
:10534000BAF1000F15D0686F90F8BD20012A04D083
:10535000B0F8B620C06B00F0F1FADAF8000040F0C7
:105360000100CAF80000DAF8000040F00040CAF876
:105370000000B9F1000F16D0686F90F8BE10012937
:1053800005D0B0F8B620006C029900F0D7FAD9F831
:10539000000040F00100C9F80000D9F8000040F01A
:1053A0000040C9F80000B8F1000F16D0686F90F8FF
:1053B000BF10012905D0B0F8B620406C019900F06B
:1053C000BDFAD8F8000040F00100C8F80000D8F895
:1053D000000040F00040C8F8000097B1686F90F8F6
:1053E000C010012905D0B0F8B820806C009900F0F9
:1053F000A5FA386840F001003860386840F0004095
:105400003860A06810F0010F08D12046FFF708FDB2
:1054100040202060606840F040006060DBF80800D9
:1054200010F0010F04BF5846FFF7FAFC344630680D
:105430004FF47A7720F001003060706820F070003F
:1054400020F00070706001213046FEF7E7FB10216C
:105450002046FEF7E3FB4FF480712046FEF7DEFBAB
:105460004FF480512046FEF7D9FB606940F00100FF
:105470006061686F90F8C110022903D095F846105A
:1054800099B126E090F8C210012904BF90F8BB0042
:10549000032811D14FF001002063606940F0010042
:1054A00060614FF00300206306E090F8BB00012824
:1054B00002D0032805D00CE0B5F86800401E6062F9
:1054C00007E001202063606940F001006061032073
:1054D00020636FF080002061686F90F8BC000028A6
:1054E00018BF6FF4807108D02069C0F30020002835
:1054F0001EBF002F21617F1EF6D1E06840F08000C2
:10550000E06003B0BDE8F08F002004E0002190F8D7
:105510006F300A46012B04BF022180F86F2090F8FB
:105520006E30012B04BF41F0400180F86E20084628
:105530007047000070B50546406F846895F84700D5
:10554000012818BF70BD602201212046FEF7A0FB94
:10555000206A40F001002062686F90F8BA000128CC
:1055600004BF206A40F0040005D0022804BF206A6E
:1055700020F0040000D12062B5F8680040086063A4
:10558000602210212046FEF783FB206A40F01000C5
:105590002062686F90F8BA00012804BF206A40F0CA
:1055A000400005D0022804BF206A20F0400000D14E
:1055B0002062B5F868004008A06360224FF4807153
:1055C0002046FEF765FB206A40F480702062686F19
:1055D00090F8BA00012804BF206A40F4806005D02A
:1055E000022804BF206A20F4806000D12062B5F850
:1055F00068004008E063064868600648686106483D
:10560000E8600648A860002085F8470070BD0000EB
:10561000E15000085D5B0008175A0008BD590008FA
:1056200070B50546406F846895F84700002840D162
:10563000602201212046FEF72BFB206A40F001008A
:105640002062206A20F00400206200206063686FFE
:1056500090F8BA00012802D002280DD019E01022DB
:1056600011462046FEF714FB206A20F0100020624D
:10567000206A40F040000BE0202210212046FEF777
:1056800007FB206A40F010002062206A20F04000F2
:10569000206270224FF480712046FEF7F9FA206AEA
:1056A00020F480702062206A20F480602062286EDE
:1056B000E86506486860064868610648E86006488C
:1056C000A860012085F8470070BD0000455700081C
:1056D000495800088D570008BD59000870B50446A8
:1056E000406F70228568B4F868004843000C6086FB
:1056F0004FF480512846FEF7CBFAB4F86800B4F8AE
:105700005610401A2864B4F85800E863608E686345
:10571000686820F0700020F0007040F07000686051
:10572000032084F83A0068680549084018BF012042
:10573000218F012918BF70BD01200021218770BD74
:1057400070000002426F9268536823F0700323F0E8
:105750000073536090F83A304FF0640C426F0CEBDA
:105760008303D2581268006E801A074A9042D8BF4D
:10577000104605DD47F6FF729042A8BF47F6FF705E
:1057800008804880704700000180FFFF10B4426F1E
:105790006FF00104D2E901C113680C610A6912F0CB
:1057A000010FFBD00C6101224A63B0F86820521F40
:1057B0000A640A6912F0010FFBD0CA6842F00102C4
:1057C000CA604A6C42F480624A644A6C42F4004205
:1057D0004A64426F92F8BA40022C1ED1096A40F224
:1057E00055542142116AB2F8AC200BD08A61426F45
:1057F000516AB2F8AE208A61416F8A6AB1F8B0107E
:1058000091620AE08A62426F516AB2F8AE208A62FF
:10581000426F916AB2F8B0208A62032180F83A1090
:10582000986820F03F0020F0004040F008009860A9
:10583000DCF8080020F03F0020F0004040F00800B5
:10584000CCF8080010BC7047416F002289684A6399
:10585000921E0A610A6912F0010FFBD04A6C42F4F1
:1058600000424A64416F91F8BA20022A18BF70477B
:105870000A6AB1F8AC109161426F516AB2F8AE2079
:105880008A62416F886AB1F8B01081627047000087
:1058900090F86D1080F83A10B0F86810438E491EE9
:1058A0008AB2416F89684B63838E8B63C08EC863F5
:1058B0000A6448680249084018BF01207047000088
:1058C0007000000230B4446FB0F86820818FB4F8E3
:1058D000B2C0531A9BB2634506D9042180F83A102E
:1058E00091B2491E89B217E0C58F4D1BADB2B5EB21
:1058F000430F84BFB4F8B420891A0CD8614489B22C
:10590000914209D34FF48072A0F86A20B0F8682061
:10591000C1EB4201491E89B2A268438E5363838E54
:105920009363C08ED063116450680349084018BF68
:10593000012030BC7047000070000002C0F3035328
:1059400001EB8303D3F808C06FF30F1C4CEA02028B
:105950009A604A6800F003031A434A6000F010029C
:10596000012000FA02F20868124B32EA000C1248D9
:105970000FD0D1F800C04CEA02020A601968B1FBEE
:10598000F0F0C00008BF7047B0F1004F38BF70475B
:105990000DE01968B1FBF0F010EB400008BF704754
:1059A000B0F1004F00D27047401EFDD17047401E3D
:1059B000FDD170476807002080841E00416F896810
:1059C000CA6822F00102CA60002280F842204A6CB4
:1059D00022F400424A6490F87020012A12D0426FEB
:1059E00092F8BA30022B0DD1136AB2F8AC209A6249
:1059F000436F5A6AB3F8AE309362426F906AB2F85E
:105A0000B02082626FF001020A61086910F0010F94
:105A1000FBD00A61704710B4416F0022896880F89A
:105A20004220B0F8682052084A63B0F86820520853
:105A30008A63B0F868205208CA63B0F86820521F21
:105A40000A646FF001030B610A6912F0010FFBD0C9
:105A50000B614A6C42F480624A644A6C42F4004230
:105A60004A64426F92F8BAC0BCF1020F28D1D1F853
:105A700020C040F255541CEA040FD2F820C0B2F8FE
:105A8000AC200FD0CCF81820D0F874C0DCF824205B
:105A9000BCF8AEC0C2F818C0406F826AB0F8B0005F
:105AA00090610DE0CCF82820426FD2F824C0B2F803
:105AB000AE20CCF82820426F906AB2F8B020826203
:105AC0000B61C86840F00100C86010BC704770B43A
:105AD000416FD1E90034D1E902C1D1B1DA6C002AB9
